{
  "contractName": "Project",
  "abi": [
    {
      "constant": true,
      "inputs": [],
      "name": "name",
      "outputs": [
        {
          "name": "",
          "type": "string"
        }
      ],
      "payable": false,
      "stateMutability": "view",
      "type": "function",
      "signature": "0x06fdde03"
    },
    {
      "constant": true,
      "inputs": [
        {
          "name": "",
          "type": "uint256"
        }
      ],
      "name": "posts",
      "outputs": [
        {
          "name": "id",
          "type": "uint256"
        },
        {
          "name": "content",
          "type": "string"
        },
        {
          "name": "author",
          "type": "address"
        }
      ],
      "payable": false,
      "stateMutability": "view",
      "type": "function",
      "signature": "0x0b1e7f83"
    },
    {
      "constant": true,
      "inputs": [],
      "name": "postCount",
      "outputs": [
        {
          "name": "",
          "type": "uint256"
        }
      ],
      "payable": false,
      "stateMutability": "view",
      "type": "function",
      "signature": "0x17906c2e"
    },
    {
      "constant": true,
      "inputs": [
        {
          "name": "",
          "type": "uint256"
        }
      ],
      "name": "docs",
      "outputs": [
        {
          "name": "id",
          "type": "uint256"
        },
        {
          "name": "title",
          "type": "string"
        },
        {
          "name": "content",
          "type": "string"
        },
        {
          "name": "author",
          "type": "address"
        }
      ],
      "payable": false,
      "stateMutability": "view",
      "type": "function",
      "signature": "0x23389c5a"
    },
    {
      "constant": true,
      "inputs": [],
      "name": "docCount",
      "outputs": [
        {
          "name": "",
          "type": "uint256"
        }
      ],
      "payable": false,
      "stateMutability": "view",
      "type": "function",
      "signature": "0x4c4dc6e0"
    },
    {
      "inputs": [],
      "payable": false,
      "stateMutability": "nonpayable",
      "type": "constructor",
      "signature": "constructor"
    },
    {
      "anonymous": false,
      "inputs": [
        {
          "indexed": false,
          "name": "id",
          "type": "uint256"
        },
        {
          "indexed": false,
          "name": "content",
          "type": "string"
        },
        {
          "indexed": false,
          "name": "author",
          "type": "address"
        }
      ],
      "name": "PostCreated",
      "type": "event",
      "signature": "0x618e7c0a5a81623326df1e96b95cff24f2c4577dee149d58c750693fc1059a14"
    },
    {
      "anonymous": false,
      "inputs": [
        {
          "indexed": false,
          "name": "doc_id",
          "type": "uint256"
        },
        {
          "indexed": false,
          "name": "title",
          "type": "string"
        },
        {
          "indexed": false,
          "name": "content",
          "type": "string"
        },
        {
          "indexed": false,
          "name": "author",
          "type": "address"
        }
      ],
      "name": "DocCreated",
      "type": "event",
      "signature": "0x5aa246ed9207f25762be78edce3983d18ebdde65734ad1eb0f66c733c77f9938"
    },
    {
      "constant": false,
      "inputs": [
        {
          "name": "_IPFShash",
          "type": "string"
        },
        {
          "name": "_title",
          "type": "string"
        }
      ],
      "name": "uploadDoc",
      "outputs": [],
      "payable": false,
      "stateMutability": "nonpayable",
      "type": "function",
      "signature": "0x2887425c"
    },
    {
      "constant": false,
      "inputs": [
        {
          "name": "_content",
          "type": "string"
        }
      ],
      "name": "createPost",
      "outputs": [],
      "payable": false,
      "stateMutability": "nonpayable",
      "type": "function",
      "signature": "0xc7303c61"
    },
    {
      "constant": false,
      "inputs": [
        {
          "name": "_id",
          "type": "uint256"
        },
        {
          "name": "_IPFShash",
          "type": "string"
        },
        {
          "name": "_title",
          "type": "string"
        }
      ],
      "name": "updateDoc",
      "outputs": [],
      "payable": false,
      "stateMutability": "nonpayable",
      "type": "function",
      "signature": "0x86b82680"
    }
  ],
  "bytecode": "0x60806040526000600155600060025534801561001a57600080fd5b506040805190810160405280600781526020017f70726f6a656374000000000000000000000000000000000000000000000000008152506000908051906020019061006692919061006c565b50610111565b828054600181600116156101000203166002900490600052602060002090601f016020900481019282601f106100ad57805160ff19168380011785556100db565b828001600101855582156100db579182015b828111156100da5782518255916020019190600101906100bf565b5b5090506100e891906100ec565b5090565b61010e91905b8082111561010a5760008160009055506001016100f2565b5090565b90565b611001806101206000396000f3fe60806040526004361061008e576000357c0100000000000000000000000000000000000000000000000000000000900463ffffffff16806306fdde03146100935780630b1e7f831461012357806317906c2e1461021157806323389c5a1461023c5780632887425c146103965780634c4dc6e0146104f557806386b8268014610520578063c7303c6114610689575b600080fd5b34801561009f57600080fd5b506100a8610751565b6040518080602001828103825283818151815260200191508051906020019080838360005b838110156100e85780820151818401526020810190506100cd565b50505050905090810190601f1680156101155780820380516001836020036101000a031916815260200191505b509250505060405180910390f35b34801561012f57600080fd5b5061015c6004803603602081101561014657600080fd5b81019080803590602001909291905050506107ef565b60405180848152602001806020018373ffffffffffffffffffffffffffffffffffffffff1673ffffffffffffffffffffffffffffffffffffffff168152602001828103825284818151815260200191508051906020019080838360005b838110156101d45780820151818401526020810190506101b9565b50505050905090810190601f1680156102015780820380516001836020036101000a031916815260200191505b5094505050505060405180910390f35b34801561021d57600080fd5b506102266108d1565b6040518082815260200191505060405180910390f35b34801561024857600080fd5b506102756004803603602081101561025f57600080fd5b81019080803590602001909291905050506108d7565b6040518085815260200180602001806020018473ffffffffffffffffffffffffffffffffffffffff1673ffffffffffffffffffffffffffffffffffffffff168152602001838103835286818151815260200191508051906020019080838360005b838110156102f15780820151818401526020810190506102d6565b50505050905090810190601f16801561031e5780820380516001836020036101000a031916815260200191505b50838103825285818151815260200191508051906020019080838360005b8381101561035757808201518184015260208101905061033c565b50505050905090810190601f1680156103845780820380516001836020036101000a031916815260200191505b50965050505050505060405180910390f35b3480156103a257600080fd5b506104f3600480360360408110156103b957600080fd5b81019080803590602001906401000000008111156103d657600080fd5b8201836020820111156103e857600080fd5b8035906020019184600183028401116401000000008311171561040a57600080fd5b91908080601f016020809104026020016040519081016040528093929190818152602001838380828437600081840152601f19601f8201169050808301925050505050505091929192908035906020019064010000000081111561046d57600080fd5b82018360208201111561047f57600080fd5b803590602001918460018302840111640100000000831117156104a157600080fd5b91908080601f016020809104026020016040519081016040528093929190818152602001838380828437600081840152601f19601f820116905080830192505050505050509192919290505050610a57565b005b34801561050157600080fd5b5061050a610c91565b6040518082815260200191505060405180910390f35b34801561052c57600080fd5b506106876004803603606081101561054357600080fd5b81019080803590602001909291908035906020019064010000000081111561056a57600080fd5b82018360208201111561057c57600080fd5b8035906020019184600183028401116401000000008311171561059e57600080fd5b91908080601f016020809104026020016040519081016040528093929190818152602001838380828437600081840152601f19601f8201169050808301925050505050505091929192908035906020019064010000000081111561060157600080fd5b82018360208201111561061357600080fd5b8035906020019184600183028401116401000000008311171561063557600080fd5b91908080601f016020809104026020016040519081016040528093929190818152602001838380828437600081840152601f19601f820116905080830192505050505050509192919290505050610c97565b005b34801561069557600080fd5b5061074f600480360360208110156106ac57600080fd5b81019080803590602001906401000000008111156106c957600080fd5b8201836020820111156106db57600080fd5b803590602001918460018302840111640100000000831117156106fd57600080fd5b91908080601f016020809104026020016040519081016040528093929190818152602001838380828437600081840152601f19601f820116905080830192505050505050509192919290505050610d77565b005b60008054600181600116156101000203166002900480601f0160208091040260200160405190810160405280929190818152602001828054600181600116156101000203166002900480156107e75780601f106107bc576101008083540402835291602001916107e7565b820191906000526020600020905b8154815290600101906020018083116107ca57829003601f168201915b505050505081565b6003602052806000526040600020600091509050806000015490806001018054600181600116156101000203166002900480601f0160208091040260200160405190810160405280929190818152602001828054600181600116156101000203166002900480156108a15780601f10610876576101008083540402835291602001916108a1565b820191906000526020600020905b81548152906001019060200180831161088457829003601f168201915b5050505050908060020160009054906101000a900473ffffffffffffffffffffffffffffffffffffffff16905083565b60015481565b6004602052806000526040600020600091509050806000015490806001018054600181600116156101000203166002900480601f0160208091040260200160405190810160405280929190818152602001828054600181600116156101000203166002900480156109895780601f1061095e57610100808354040283529160200191610989565b820191906000526020600020905b81548152906001019060200180831161096c57829003601f168201915b505050505090806002018054600181600116156101000203166002900480601f016020809104026020016040519081016040528092919081815260200182805460018160011615610100020316600290048015610a275780601f106109fc57610100808354040283529160200191610a27565b820191906000526020600020905b815481529060010190602001808311610a0a57829003601f168201915b5050505050908060030160009054906101000a900473ffffffffffffffffffffffffffffffffffffffff16905084565b60026000815480929190600101919050555060806040519081016040528060025481526020018281526020018381526020013373ffffffffffffffffffffffffffffffffffffffff16815250600460006002548152602001908152602001600020600082015181600001556020820151816001019080519060200190610ade929190610f30565b506040820151816002019080519060200190610afb929190610f30565b5060608201518160030160006101000a81548173ffffffffffffffffffffffffffffffffffffffff021916908373ffffffffffffffffffffffffffffffffffffffff1602179055509050507f5aa246ed9207f25762be78edce3983d18ebdde65734ad1eb0f66c733c77f99386002548284336040518085815260200180602001806020018473ffffffffffffffffffffffffffffffffffffffff1673ffffffffffffffffffffffffffffffffffffffff168152602001838103835286818151815260200191508051906020019080838360005b83811015610be9578082015181840152602081019050610bce565b50505050905090810190601f168015610c165780820380516001836020036101000a031916815260200191505b50838103825285818151815260200191508051906020019080838360005b83811015610c4f578082015181840152602081019050610c34565b50505050905090810190601f168015610c7c5780820380516001836020036101000a031916815260200191505b50965050505050505060405180910390a15050565b60025481565b60806040519081016040528060025481526020018281526020018381526020013373ffffffffffffffffffffffffffffffffffffffff1681525060046000858152602001908152602001600020600082015181600001556020820151816001019080519060200190610d0a929190610f30565b506040820151816002019080519060200190610d27929190610f30565b5060608201518160030160006101000a81548173ffffffffffffffffffffffffffffffffffffffff021916908373ffffffffffffffffffffffffffffffffffffffff160217905550905050505050565b60008151111515610d8757600080fd5b60016000815480929190600101919050555060606040519081016040528060015481526020018281526020013373ffffffffffffffffffffffffffffffffffffffff16815250600360006001548152602001908152602001600020600082015181600001556020820151816001019080519060200190610e08929190610f30565b5060408201518160020160006101000a81548173ffffffffffffffffffffffffffffffffffffffff021916908373ffffffffffffffffffffffffffffffffffffffff1602179055509050507f618e7c0a5a81623326df1e96b95cff24f2c4577dee149d58c750693fc1059a14600154823360405180848152602001806020018373ffffffffffffffffffffffffffffffffffffffff1673ffffffffffffffffffffffffffffffffffffffff168152602001828103825284818151815260200191508051906020019080838360005b83811015610ef1578082015181840152602081019050610ed6565b50505050905090810190601f168015610f1e5780820380516001836020036101000a031916815260200191505b5094505050505060405180910390a150565b828054600181600116156101000203166002900490600052602060002090601f016020900481019282601f10610f7157805160ff1916838001178555610f9f565b82800160010185558215610f9f579182015b82811115610f9e578251825591602001919060010190610f83565b5b509050610fac9190610fb0565b5090565b610fd291905b80821115610fce576000816000905550600101610fb6565b5090565b9056fea165627a7a72305820b53f6f1ee0cd820c942adb2aa87bb64fc16e91e69b6c3a224a5d8c2f56edacbb0029",
  "source": "pragma solidity ^0.5.0;\r\n\r\ncontract Project {\r\n\tstring public name;\r\n\tuint public postCount = 0;\r\n\tuint public docCount = 0;\r\n\r\n\t//writting key value pair into the blockchain\r\n\tmapping(uint => Post) public posts;\r\n\tmapping(uint => Doc) public docs;\r\n\r\n\tstruct Post {\r\n\t\tuint id;\r\n\t\tstring content;\r\n\t\taddress author;\r\n\t}\t\r\n\r\n\tstruct Doc {\r\n\t\tuint id;\r\n\t\tstring title;\r\n\t\tstring content;\r\n\t\taddress author;\r\n\t}\r\n\t\r\n\tevent PostCreated(\r\n\t\tuint id,\r\n\t\tstring content,\r\n\t\taddress author\r\n\t);\r\n\r\n\tevent DocCreated(\r\n\t\tuint doc_id,\r\n\t\tstring title,\r\n\t\tstring content,\r\n\t\taddress author\r\n\t);\r\n\r\n\tconstructor() public  {\r\n\t\tname=\"project\";\r\n\t}\r\n\r\n\tfunction uploadDoc(string memory _IPFShash, string memory _title) public {\r\n\t\t//upload documents to IPFS get hash then save hash on to blockchain\r\n\t\tdocCount++;\r\n\r\n\t\t//make a doc\r\n\t\tdocs[docCount] = Doc(docCount, _title, _IPFShash, msg.sender);\r\n\r\n\t\t//Trigger Event, solidty provides a way for users to track events \r\n\t\temit DocCreated(docCount, _title, _IPFShash, msg.sender);\r\n\t}\t\r\n\r\n\tfunction createPost(string memory _content) public {\r\n\t\t//require valid content solidity specific function, if 1 then run rest of code, \r\n\t\t//else stops and refund gas\r\n\r\n\t\trequire(bytes(_content).length > 0 );\r\n\r\n\t\tpostCount++;\r\n\t\t//make a post\r\n\t\tposts[postCount] = Post(postCount, _content, msg.sender);\r\n\t\t\r\n\t\t//Trigger Event, solidty provides a way for users to track events \r\n\t\temit PostCreated(postCount, _content, msg.sender);\r\n\t}\r\n\r\n\tfunction updateDoc(uint _id, string memory _IPFShash, string memory _title) public {\r\n\r\n\t\t//make a doc\r\n\t\tdocs[_id] = Doc(docCount, _title, _IPFShash, msg.sender);\r\n\r\n\t\t//Trigger Event, solidty provides a way for users to track events \r\n\t\t\r\n\t}\r\n\t\r\n\r\n}",
  "sourcePath": "C:/Users/User/Documents/Project/project/project/FinalYearProject/src/contracts/Project.sol",
  "compiler": {
    "name": "solc",
    "version": "0.5.0+commit.1d4f565a.Emscripten.clang"
  },
  "schemaVersion": "3.0.1",
  "updatedAt": "2020-03-03T14:48:05.718Z",
  "devdoc": {
    "methods": {}
  },
  "userdoc": {
    "methods": {}
  }
}