{
  "contractName": "Project",
  "abi": [
    {
      "constant": true,
      "inputs": [],
      "name": "name",
      "outputs": [
        {
          "name": "",
          "type": "string"
        }
      ],
      "payable": false,
      "stateMutability": "view",
      "type": "function",
      "signature": "0x06fdde03"
    },
    {
      "constant": true,
      "inputs": [
        {
          "name": "",
          "type": "uint256"
        }
      ],
      "name": "posts",
      "outputs": [
        {
          "name": "id",
          "type": "uint256"
        },
        {
          "name": "content",
          "type": "string"
        },
        {
          "name": "author",
          "type": "address"
        }
      ],
      "payable": false,
      "stateMutability": "view",
      "type": "function",
      "signature": "0x0b1e7f83"
    },
    {
      "constant": true,
      "inputs": [],
      "name": "postCount",
      "outputs": [
        {
          "name": "",
          "type": "uint256"
        }
      ],
      "payable": false,
      "stateMutability": "view",
      "type": "function",
      "signature": "0x17906c2e"
    },
    {
      "constant": true,
      "inputs": [],
      "name": "docCount",
      "outputs": [
        {
          "name": "",
          "type": "uint256"
        }
      ],
      "payable": false,
      "stateMutability": "view",
      "type": "function",
      "signature": "0x4c4dc6e0"
    },
    {
      "constant": true,
      "inputs": [
        {
          "name": "",
          "type": "uint256"
        }
      ],
      "name": "document",
      "outputs": [
        {
          "name": "id",
          "type": "uint256"
        },
        {
          "name": "title",
          "type": "string"
        },
        {
          "name": "content",
          "type": "string"
        },
        {
          "name": "author",
          "type": "address"
        }
      ],
      "payable": false,
      "stateMutability": "view",
      "type": "function",
      "signature": "0x7fb173af"
    },
    {
      "inputs": [],
      "payable": false,
      "stateMutability": "nonpayable",
      "type": "constructor",
      "signature": "constructor"
    },
    {
      "anonymous": false,
      "inputs": [
        {
          "indexed": false,
          "name": "id",
          "type": "uint256"
        },
        {
          "indexed": false,
          "name": "content",
          "type": "string"
        },
        {
          "indexed": false,
          "name": "author",
          "type": "address"
        }
      ],
      "name": "PostCreated",
      "type": "event",
      "signature": "0x618e7c0a5a81623326df1e96b95cff24f2c4577dee149d58c750693fc1059a14"
    },
    {
      "anonymous": false,
      "inputs": [
        {
          "indexed": false,
          "name": "doc_id",
          "type": "uint256"
        },
        {
          "indexed": false,
          "name": "title",
          "type": "string"
        },
        {
          "indexed": false,
          "name": "content",
          "type": "string"
        },
        {
          "indexed": false,
          "name": "author",
          "type": "address"
        }
      ],
      "name": "DocCreated",
      "type": "event",
      "signature": "0x5aa246ed9207f25762be78edce3983d18ebdde65734ad1eb0f66c733c77f9938"
    },
    {
      "anonymous": false,
      "inputs": [
        {
          "indexed": false,
          "name": "doc_id",
          "type": "uint256"
        },
        {
          "indexed": false,
          "name": "title",
          "type": "string"
        },
        {
          "indexed": false,
          "name": "content",
          "type": "string"
        },
        {
          "indexed": false,
          "name": "author",
          "type": "address"
        }
      ],
      "name": "DocUploaded",
      "type": "event",
      "signature": "0x4586e2343c9dddb84d9e3635b0bb884f3a03974967a170d4b6a6c22e05501e56"
    },
    {
      "constant": false,
      "inputs": [
        {
          "name": "_IPFShash",
          "type": "string"
        },
        {
          "name": "_title",
          "type": "string"
        }
      ],
      "name": "uploadDoc",
      "outputs": [],
      "payable": false,
      "stateMutability": "nonpayable",
      "type": "function",
      "signature": "0x2887425c"
    },
    {
      "constant": false,
      "inputs": [
        {
          "name": "_content",
          "type": "string"
        }
      ],
      "name": "createPost",
      "outputs": [],
      "payable": false,
      "stateMutability": "nonpayable",
      "type": "function",
      "signature": "0xc7303c61"
    },
    {
      "constant": false,
      "inputs": [
        {
          "name": "_id",
          "type": "uint256"
        },
        {
          "name": "_IPFShash",
          "type": "string"
        },
        {
          "name": "_title",
          "type": "string"
        }
      ],
      "name": "updateDoc",
      "outputs": [],
      "payable": false,
      "stateMutability": "nonpayable",
      "type": "function",
      "signature": "0x86b82680"
    },
    {
      "constant": false,
      "inputs": [
        {
          "name": "_id",
          "type": "uint256"
        }
      ],
      "name": "deleteDoc",
      "outputs": [],
      "payable": false,
      "stateMutability": "nonpayable",
      "type": "function",
      "signature": "0x124b66e2"
    }
  ],
  "bytecode": "0x6080604052600060015560006002553480156200001b57600080fd5b506040805190810160405280600781526020017f70726f6a65637400000000000000000000000000000000000000000000000000815250600090805190602001906200006992919062000070565b506200011f565b828054600181600116156101000203166002900490600052602060002090601f016020900481019282601f10620000b357805160ff1916838001178555620000e4565b82800160010185558215620000e4579182015b82811115620000e3578251825591602001919060010190620000c6565b5b509050620000f39190620000f7565b5090565b6200011c91905b8082111562000118576000816000905550600101620000fe565b5090565b90565b61134d806200012f6000396000f3fe608060405260043610610099576000357c0100000000000000000000000000000000000000000000000000000000900463ffffffff16806306fdde031461009e5780630b1e7f831461012e578063124b66e21461021c57806317906c2e146102575780632887425c146102825780634c4dc6e0146103e15780637fb173af1461040c57806386b8268014610566578063c7303c61146106cf575b600080fd5b3480156100aa57600080fd5b506100b3610797565b6040518080602001828103825283818151815260200191508051906020019080838360005b838110156100f35780820151818401526020810190506100d8565b50505050905090810190601f1680156101205780820380516001836020036101000a031916815260200191505b509250505060405180910390f35b34801561013a57600080fd5b506101676004803603602081101561015157600080fd5b8101908080359060200190929190505050610835565b60405180848152602001806020018373ffffffffffffffffffffffffffffffffffffffff1673ffffffffffffffffffffffffffffffffffffffff168152602001828103825284818151815260200191508051906020019080838360005b838110156101df5780820151818401526020810190506101c4565b50505050905090810190601f16801561020c5780820380516001836020036101000a031916815260200191505b5094505050505060405180910390f35b34801561022857600080fd5b506102556004803603602081101561023f57600080fd5b8101908080359060200190929190505050610917565b005b34801561026357600080fd5b5061026c6109e6565b6040518082815260200191505060405180910390f35b34801561028e57600080fd5b506103df600480360360408110156102a557600080fd5b81019080803590602001906401000000008111156102c257600080fd5b8201836020820111156102d457600080fd5b803590602001918460018302840111640100000000831117156102f657600080fd5b91908080601f016020809104026020016040519081016040528093929190818152602001838380828437600081840152601f19601f8201169050808301925050505050505091929192908035906020019064010000000081111561035957600080fd5b82018360208201111561036b57600080fd5b8035906020019184600183028401116401000000008311171561038d57600080fd5b91908080601f016020809104026020016040519081016040528093929190818152602001838380828437600081840152601f19601f8201169050808301925050505050505091929192905050506109ec565b005b3480156103ed57600080fd5b506103f6610c3e565b6040518082815260200191505060405180910390f35b34801561041857600080fd5b506104456004803603602081101561042f57600080fd5b8101908080359060200190929190505050610c44565b6040518085815260200180602001806020018473ffffffffffffffffffffffffffffffffffffffff1673ffffffffffffffffffffffffffffffffffffffff168152602001838103835286818151815260200191508051906020019080838360005b838110156104c15780820151818401526020810190506104a6565b50505050905090810190601f1680156104ee5780820380516001836020036101000a031916815260200191505b50838103825285818151815260200191508051906020019080838360005b8381101561052757808201518184015260208101905061050c565b50505050905090810190601f1680156105545780820380516001836020036101000a031916815260200191505b50965050505050505060405180910390f35b34801561057257600080fd5b506106cd6004803603606081101561058957600080fd5b8101908080359060200190929190803590602001906401000000008111156105b057600080fd5b8201836020820111156105c257600080fd5b803590602001918460018302840111640100000000831117156105e457600080fd5b91908080601f016020809104026020016040519081016040528093929190818152602001838380828437600081840152601f19601f8201169050808301925050505050505091929192908035906020019064010000000081111561064757600080fd5b82018360208201111561065957600080fd5b8035906020019184600183028401116401000000008311171561067b57600080fd5b91908080601f016020809104026020016040519081016040528093929190818152602001838380828437600081840152601f19601f820116905080830192505050505050509192919290505050610dd3565b005b3480156106db57600080fd5b50610795600480360360208110156106f257600080fd5b810190808035906020019064010000000081111561070f57600080fd5b82018360208201111561072157600080fd5b8035906020019184600183028401116401000000008311171561074357600080fd5b91908080601f016020809104026020016040519081016040528093929190818152602001838380828437600081840152601f19601f820116905080830192505050505050509192919290505050610ffb565b005b60008054600181600116156101000203166002900480601f01602080910402602001604051908101604052809291908181526020018280546001816001161561010002031660029004801561082d5780601f106108025761010080835404028352916020019161082d565b820191906000526020600020905b81548152906001019060200180831161081057829003601f168201915b505050505081565b6003602052806000526040600020600091509050806000015490806001018054600181600116156101000203166002900480601f0160208091040260200160405190810160405280929190818152602001828054600181600116156101000203166002900480156108e75780601f106108bc576101008083540402835291602001916108e7565b820191906000526020600020905b8154815290600101906020018083116108ca57829003601f168201915b5050505050908060020160009054906101000a900473ffffffffffffffffffffffffffffffffffffffff16905083565b60008090505b6004805490508110156109e2578160048281548110151561093a57fe5b90600052602060002090600402016000015414156109d55760048181548110151561096157fe5b906000526020600020906004020160008082016000905560018201600061098891906111b4565b60028201600061099891906111b4565b6003820160006101000a81549073ffffffffffffffffffffffffffffffffffffffff02191690555050600260008154809291906001900391905055505b808060010191505061091d565b5050565b60015481565b600460806040519081016040528060025481526020018381526020018481526020013373ffffffffffffffffffffffffffffffffffffffff1681525090806001815401808255809150509060018203906000526020600020906004020160009091929091909150600082015181600001556020820151816001019080519060200190610a799291906111fc565b506040820151816002019080519060200190610a969291906111fc565b5060608201518160030160006101000a81548173ffffffffffffffffffffffffffffffffffffffff021916908373ffffffffffffffffffffffffffffffffffffffff1602179055505050506002600081548092919060010191905055507f5aa246ed9207f25762be78edce3983d18ebdde65734ad1eb0f66c733c77f99386002548284336040518085815260200180602001806020018473ffffffffffffffffffffffffffffffffffffffff1673ffffffffffffffffffffffffffffffffffffffff168152602001838103835286818151815260200191508051906020019080838360005b83811015610b96578082015181840152602081019050610b7b565b50505050905090810190601f168015610bc35780820380516001836020036101000a031916815260200191505b50838103825285818151815260200191508051906020019080838360005b83811015610bfc578082015181840152602081019050610be1565b50505050905090810190601f168015610c295780820380516001836020036101000a031916815260200191505b50965050505050505060405180910390a15050565b60025481565b600481815481101515610c5357fe5b9060005260206000209060040201600091509050806000015490806001018054600181600116156101000203166002900480601f016020809104026020016040519081016040528092919081815260200182805460018160011615610100020316600290048015610d055780601f10610cda57610100808354040283529160200191610d05565b820191906000526020600020905b815481529060010190602001808311610ce857829003601f168201915b505050505090806002018054600181600116156101000203166002900480601f016020809104026020016040519081016040528092919081815260200182805460018160011615610100020316600290048015610da35780601f10610d7857610100808354040283529160200191610da3565b820191906000526020600020905b815481529060010190602001808311610d8657829003601f168201915b5050505050908060030160009054906101000a900473ffffffffffffffffffffffffffffffffffffffff16905084565b60008090505b600480549050811015610eb05783600482815481101515610df657fe5b9060005260206000209060040201600001541415610ea35782600482815481101515610e1e57fe5b90600052602060002090600402016002019080519060200190610e4292919061127c565b5033600482815481101515610e5357fe5b906000526020600020906004020160030160006101000a81548173ffffffffffffffffffffffffffffffffffffffff021916908373ffffffffffffffffffffffffffffffffffffffff1602179055505b8080600101915050610dd9565b507f4586e2343c9dddb84d9e3635b0bb884f3a03974967a170d4b6a6c22e05501e56838284336040518085815260200180602001806020018473ffffffffffffffffffffffffffffffffffffffff1673ffffffffffffffffffffffffffffffffffffffff168152602001838103835286818151815260200191508051906020019080838360005b83811015610f52578082015181840152602081019050610f37565b50505050905090810190601f168015610f7f5780820380516001836020036101000a031916815260200191505b50838103825285818151815260200191508051906020019080838360005b83811015610fb8578082015181840152602081019050610f9d565b50505050905090810190601f168015610fe55780820380516001836020036101000a031916815260200191505b50965050505050505060405180910390a1505050565b6000815111151561100b57600080fd5b60016000815480929190600101919050555060606040519081016040528060015481526020018281526020013373ffffffffffffffffffffffffffffffffffffffff1681525060036000600154815260200190815260200160002060008201518160000155602082015181600101908051906020019061108c9291906111fc565b5060408201518160020160006101000a81548173ffffffffffffffffffffffffffffffffffffffff021916908373ffffffffffffffffffffffffffffffffffffffff1602179055509050507f618e7c0a5a81623326df1e96b95cff24f2c4577dee149d58c750693fc1059a14600154823360405180848152602001806020018373ffffffffffffffffffffffffffffffffffffffff1673ffffffffffffffffffffffffffffffffffffffff168152602001828103825284818151815260200191508051906020019080838360005b8381101561117557808201518184015260208101905061115a565b50505050905090810190601f1680156111a25780820380516001836020036101000a031916815260200191505b5094505050505060405180910390a150565b50805460018160011615610100020316600290046000825580601f106111da57506111f9565b601f0160209004906000526020600020908101906111f891906112fc565b5b50565b828054600181600116156101000203166002900490600052602060002090601f016020900481019282601f1061123d57805160ff191683800117855561126b565b8280016001018555821561126b579182015b8281111561126a57825182559160200191906001019061124f565b5b50905061127891906112fc565b5090565b828054600181600116156101000203166002900490600052602060002090601f016020900481019282601f106112bd57805160ff19168380011785556112eb565b828001600101855582156112eb579182015b828111156112ea5782518255916020019190600101906112cf565b5b5090506112f891906112fc565b5090565b61131e91905b8082111561131a576000816000905550600101611302565b5090565b9056fea165627a7a723058206f5d5e3456d0409eeeb44a95667efe30f748f35728c6cc6bc7bc7f0620a453680029",
  "source": "pragma solidity ^0.5.0;\r\n\r\ncontract Project {\r\n\tstring public name;\r\n\tuint public postCount = 0;\r\n\tuint public docCount = 0;\r\n\r\n\t//writting key value pair into the blockchain\r\n\tmapping(uint => Post) public posts;\r\n\t//mapping(uint => Doc) public Docs;\r\n\t\r\n\tDoc[] public document;\r\n\r\n\tstruct Post {\r\n\t\tuint id;\r\n\t\tstring content;\r\n\t\taddress author;\r\n\t}\t\r\n\r\n\tstruct Doc {\r\n\t\tuint id;\r\n\t\tstring title;\r\n\t\tstring content;\r\n\t\taddress author;\r\n\t}\r\n\t\r\n\tevent PostCreated(\r\n\t\tuint id,\r\n\t\tstring content,\r\n\t\taddress author\r\n\t);\r\n\r\n\tevent DocCreated(\r\n\t\tuint doc_id,\r\n\t\tstring title,\r\n\t\tstring content,\r\n\t\taddress author\r\n\t);\r\n\r\n\tevent DocUploaded(\r\n\t\tuint doc_id,\r\n\t\tstring title,\r\n\t\tstring content,\r\n\t\taddress author\r\n\t);\r\n\r\n\tconstructor() public  {\r\n\t\tname=\"project\";\r\n\t}\r\n\r\n\tfunction uploadDoc(string memory _IPFShash, string memory _title) public {\r\n\t\t//upload documents to IPFS get hash then save hash on to blockchain\r\n\t\t\r\n\t\t//make a doc\r\n\t\t//Docs[docCount] = Doc(docCount, _title, _IPFShash, msg.sender);\r\n\t\tdocument.push(Doc(docCount, _title, _IPFShash, msg.sender));\r\n\t\tdocCount++;\r\n\t\t//Trigger Event, solidty provides a way for users to track events and test\r\n\t\temit DocCreated(docCount, _title, _IPFShash, msg.sender);\r\n\t}\r\n\r\n\tfunction createPost(string memory _content) public {\r\n\t\t//require valid content solidity specific function, if 1 then run rest of code, \r\n\r\n\t\t//else stops and refund gas\r\n\r\n\t\trequire(bytes(_content).length > 0 );\r\n\r\n\t\tpostCount++;\r\n\t\t//make a post\r\n\t\tposts[postCount] = Post(postCount, _content, msg.sender);\r\n\t\t\r\n\t\t//Trigger Event, solidty provides a way for users to track events \r\n\t\temit PostCreated(postCount, _content, msg.sender);\r\n\t}\r\n\r\n\tfunction updateDoc(uint _id, string memory _IPFShash, string memory _title) public {\r\n\r\n\t\tfor (uint i=0; i<document.length; i++) {\r\n\t\t\tif (document[i].id == _id){\r\n\t\t\t\tdocument[i].content =  _IPFShash;\r\n\t\t\t\tdocument[i].author =  msg.sender;\r\n\t\t\t}\r\n\t\t}\r\n\t\t//Trigger Event, solidty provides a way for users to track events \r\n\t\temit DocUploaded(_id,  _title, _IPFShash, msg.sender);\r\n\t\r\n\t}\r\n\r\n\tfunction deleteDoc(uint _id) public {\r\n\r\n\t\tfor (uint i=0; i<document.length; i++) {\r\n\t\t\tif (document[i].id == _id){\r\n\t\t\t\tdelete document[i];\r\n\t\t\t\tdocCount--;\r\n\t\t\t}\r\n\t\t}\t\r\n\t}\r\n\r\n\r\n\t  \r\n}",
  "sourcePath": "C:/Users/User/Documents/Project/project/project/FinalYearProject/src/contracts/Project.sol",
  "compiler": {
    "name": "solc",
    "version": "0.5.0+commit.1d4f565a.Emscripten.clang"
  },
  "schemaVersion": "3.0.1",
  "updatedAt": "2020-03-11T10:31:41.988Z",
  "devdoc": {
    "methods": {}
  },
  "userdoc": {
    "methods": {}
  }
}