{
  "contractName": "Project",
  "abi": [
    {
      "inputs": [],
      "payable": false,
      "stateMutability": "nonpayable",
      "type": "constructor"
    },
    {
      "anonymous": false,
      "inputs": [
        {
          "indexed": false,
          "internalType": "uint256",
          "name": "doc_id",
          "type": "uint256"
        },
        {
          "indexed": false,
          "internalType": "string",
          "name": "title",
          "type": "string"
        },
        {
          "indexed": false,
          "internalType": "string",
          "name": "content",
          "type": "string"
        },
        {
          "indexed": false,
          "internalType": "address",
          "name": "author",
          "type": "address"
        }
      ],
      "name": "DocCreated",
      "type": "event"
    },
    {
      "anonymous": false,
      "inputs": [
        {
          "indexed": false,
          "internalType": "uint256",
          "name": "doc_id",
          "type": "uint256"
        }
      ],
      "name": "DocDeleted",
      "type": "event"
    },
    {
      "anonymous": false,
      "inputs": [
        {
          "indexed": false,
          "internalType": "uint256",
          "name": "doc_id",
          "type": "uint256"
        },
        {
          "indexed": false,
          "internalType": "string",
          "name": "title",
          "type": "string"
        },
        {
          "indexed": false,
          "internalType": "string",
          "name": "content",
          "type": "string"
        },
        {
          "indexed": false,
          "internalType": "address",
          "name": "author",
          "type": "address"
        }
      ],
      "name": "DocUploaded",
      "type": "event"
    },
    {
      "anonymous": false,
      "inputs": [
        {
          "indexed": false,
          "internalType": "uint256",
          "name": "id",
          "type": "uint256"
        },
        {
          "indexed": false,
          "internalType": "string",
          "name": "content",
          "type": "string"
        },
        {
          "indexed": false,
          "internalType": "address",
          "name": "author",
          "type": "address"
        }
      ],
      "name": "PostCreated",
      "type": "event"
    },
    {
      "constant": true,
      "inputs": [],
      "name": "docCount",
      "outputs": [
        {
          "internalType": "uint256",
          "name": "",
          "type": "uint256"
        }
      ],
      "payable": false,
      "stateMutability": "view",
      "type": "function"
    },
    {
      "constant": true,
      "inputs": [
        {
          "internalType": "uint256",
          "name": "",
          "type": "uint256"
        }
      ],
      "name": "document",
      "outputs": [
        {
          "internalType": "uint256",
          "name": "id",
          "type": "uint256"
        },
        {
          "internalType": "string",
          "name": "title",
          "type": "string"
        },
        {
          "internalType": "string",
          "name": "content",
          "type": "string"
        },
        {
          "internalType": "address",
          "name": "author",
          "type": "address"
        }
      ],
      "payable": false,
      "stateMutability": "view",
      "type": "function"
    },
    {
      "constant": true,
      "inputs": [],
      "name": "name",
      "outputs": [
        {
          "internalType": "string",
          "name": "",
          "type": "string"
        }
      ],
      "payable": false,
      "stateMutability": "view",
      "type": "function"
    },
    {
      "constant": true,
      "inputs": [],
      "name": "postCount",
      "outputs": [
        {
          "internalType": "uint256",
          "name": "",
          "type": "uint256"
        }
      ],
      "payable": false,
      "stateMutability": "view",
      "type": "function"
    },
    {
      "constant": true,
      "inputs": [
        {
          "internalType": "uint256",
          "name": "",
          "type": "uint256"
        }
      ],
      "name": "posts",
      "outputs": [
        {
          "internalType": "uint256",
          "name": "id",
          "type": "uint256"
        },
        {
          "internalType": "string",
          "name": "content",
          "type": "string"
        },
        {
          "internalType": "address",
          "name": "author",
          "type": "address"
        }
      ],
      "payable": false,
      "stateMutability": "view",
      "type": "function"
    },
    {
      "constant": false,
      "inputs": [
        {
          "internalType": "string",
          "name": "_IPFShash",
          "type": "string"
        },
        {
          "internalType": "string",
          "name": "_title",
          "type": "string"
        }
      ],
      "name": "uploadDoc",
      "outputs": [],
      "payable": false,
      "stateMutability": "nonpayable",
      "type": "function"
    },
    {
      "constant": false,
      "inputs": [
        {
          "internalType": "string",
          "name": "_content",
          "type": "string"
        }
      ],
      "name": "createPost",
      "outputs": [],
      "payable": false,
      "stateMutability": "nonpayable",
      "type": "function"
    },
    {
      "constant": false,
      "inputs": [
        {
          "internalType": "uint256",
          "name": "_id",
          "type": "uint256"
        },
        {
          "internalType": "string",
          "name": "_IPFShash",
          "type": "string"
        },
        {
          "internalType": "string",
          "name": "_title",
          "type": "string"
        }
      ],
      "name": "updateDoc",
      "outputs": [],
      "payable": false,
      "stateMutability": "nonpayable",
      "type": "function"
    },
    {
      "constant": false,
      "inputs": [
        {
          "internalType": "uint256",
          "name": "_id",
          "type": "uint256"
        }
      ],
      "name": "deleteDoc",
      "outputs": [],
      "payable": false,
      "stateMutability": "nonpayable",
      "type": "function"
    }
  ],
  "bytecode": "0x6080604052600060015560006002553480156200001b57600080fd5b506040518060400160405280600781526020017f70726f6a65637400000000000000000000000000000000000000000000000000815250600090805190602001906200006992919062000070565b506200011f565b828054600181600116156101000203166002900490600052602060002090601f016020900481019282601f10620000b357805160ff1916838001178555620000e4565b82800160010185558215620000e4579182015b82811115620000e3578251825591602001919060010190620000c6565b5b509050620000f39190620000f7565b5090565b6200011c91905b8082111562000118576000816000905550600101620000fe565b5090565b90565b611302806200012f6000396000f3fe608060405234801561001057600080fd5b50600436106100935760003560e01c80632887425c116100665780632887425c146102485780634c4dc6e01461039a5780637fb173af146103b857806386b8268014610505578063c7303c611461066157610093565b806306fdde03146100985780630b1e7f831461011b578063124b66e2146101fc57806317906c2e1461022a575b600080fd5b6100a061071c565b6040518080602001828103825283818151815260200191508051906020019080838360005b838110156100e05780820151818401526020810190506100c5565b50505050905090810190601f16801561010d5780820380516001836020036101000a031916815260200191505b509250505060405180910390f35b6101476004803603602081101561013157600080fd5b81019080803590602001909291905050506107ba565b60405180848152602001806020018373ffffffffffffffffffffffffffffffffffffffff1673ffffffffffffffffffffffffffffffffffffffff168152602001828103825284818151815260200191508051906020019080838360005b838110156101bf5780820151818401526020810190506101a4565b50505050905090810190601f1680156101ec5780820380516001836020036101000a031916815260200191505b5094505050505060405180910390f35b6102286004803603602081101561021257600080fd5b810190808035906020019092919050505061089c565b005b61023261099e565b6040518082815260200191505060405180910390f35b6103986004803603604081101561025e57600080fd5b810190808035906020019064010000000081111561027b57600080fd5b82018360208201111561028d57600080fd5b803590602001918460018302840111640100000000831117156102af57600080fd5b91908080601f016020809104026020016040519081016040528093929190818152602001838380828437600081840152601f19601f8201169050808301925050505050505091929192908035906020019064010000000081111561031257600080fd5b82018360208201111561032457600080fd5b8035906020019184600183028401116401000000008311171561034657600080fd5b91908080601f016020809104026020016040519081016040528093929190818152602001838380828437600081840152601f19601f8201169050808301925050505050505091929192905050506109a4565b005b6103a2610bf5565b6040518082815260200191505060405180910390f35b6103e4600480360360208110156103ce57600080fd5b8101908080359060200190929190505050610bfb565b6040518085815260200180602001806020018473ffffffffffffffffffffffffffffffffffffffff1673ffffffffffffffffffffffffffffffffffffffff168152602001838103835286818151815260200191508051906020019080838360005b83811015610460578082015181840152602081019050610445565b50505050905090810190601f16801561048d5780820380516001836020036101000a031916815260200191505b50838103825285818151815260200191508051906020019080838360005b838110156104c65780820151818401526020810190506104ab565b50505050905090810190601f1680156104f35780820380516001836020036101000a031916815260200191505b50965050505050505060405180910390f35b61065f6004803603606081101561051b57600080fd5b81019080803590602001909291908035906020019064010000000081111561054257600080fd5b82018360208201111561055457600080fd5b8035906020019184600183028401116401000000008311171561057657600080fd5b91908080601f016020809104026020016040519081016040528093929190818152602001838380828437600081840152601f19601f820116905080830192505050505050509192919290803590602001906401000000008111156105d957600080fd5b8201836020820111156105eb57600080fd5b8035906020019184600183028401116401000000008311171561060d57600080fd5b91908080601f016020809104026020016040519081016040528093929190818152602001838380828437600081840152601f19601f820116905080830192505050505050509192919290505050610d88565b005b61071a6004803603602081101561067757600080fd5b810190808035906020019064010000000081111561069457600080fd5b8201836020820111156106a657600080fd5b803590602001918460018302840111640100000000831117156106c857600080fd5b91908080601f016020809104026020016040519081016040528093929190818152602001838380828437600081840152601f19601f820116905080830192505050505050509192919290505050610faa565b005b60008054600181600116156101000203166002900480601f0160208091040260200160405190810160405280929190818152602001828054600181600116156101000203166002900480156107b25780601f10610787576101008083540402835291602001916107b2565b820191906000526020600020905b81548152906001019060200180831161079557829003601f168201915b505050505081565b6003602052806000526040600020600091509050806000015490806001018054600181600116156101000203166002900480601f01602080910402602001604051908101604052809291908181526020018280546001816001161561010002031660029004801561086c5780601f106108415761010080835404028352916020019161086c565b820191906000526020600020905b81548152906001019060200180831161084f57829003601f168201915b5050505050908060020160009054906101000a900473ffffffffffffffffffffffffffffffffffffffff16905083565b60008090505b6004805490508110156109635781600482815481106108bd57fe5b906000526020600020906004020160000154141561095657600481815481106108e257fe5b90600052602060002090600402016000808201600090556001820160006109099190611160565b6002820160006109199190611160565b6003820160006101000a81549073ffffffffffffffffffffffffffffffffffffffff02191690555050600260008154809291906001900391905055505b80806001019150506108a2565b507f52ae8fc3528c961ce9ff07184aba0dd9d1701fd20b5161e6bf711e24f6f78e16816040518082815260200191505060405180910390a150565b60015481565b6004604051806080016040528060025481526020018381526020018481526020013373ffffffffffffffffffffffffffffffffffffffff1681525090806001815401808255809150509060018203906000526020600020906004020160009091929091909150600082015181600001556020820151816001019080519060200190610a309291906111a8565b506040820151816002019080519060200190610a4d9291906111a8565b5060608201518160030160006101000a81548173ffffffffffffffffffffffffffffffffffffffff021916908373ffffffffffffffffffffffffffffffffffffffff1602179055505050506002600081548092919060010191905055507f5aa246ed9207f25762be78edce3983d18ebdde65734ad1eb0f66c733c77f99386002548284336040518085815260200180602001806020018473ffffffffffffffffffffffffffffffffffffffff1673ffffffffffffffffffffffffffffffffffffffff168152602001838103835286818151815260200191508051906020019080838360005b83811015610b4d578082015181840152602081019050610b32565b50505050905090810190601f168015610b7a5780820380516001836020036101000a031916815260200191505b50838103825285818151815260200191508051906020019080838360005b83811015610bb3578082015181840152602081019050610b98565b50505050905090810190601f168015610be05780820380516001836020036101000a031916815260200191505b50965050505050505060405180910390a15050565b60025481565b60048181548110610c0857fe5b9060005260206000209060040201600091509050806000015490806001018054600181600116156101000203166002900480601f016020809104026020016040519081016040528092919081815260200182805460018160011615610100020316600290048015610cba5780601f10610c8f57610100808354040283529160200191610cba565b820191906000526020600020905b815481529060010190602001808311610c9d57829003601f168201915b505050505090806002018054600181600116156101000203166002900480601f016020809104026020016040519081016040528092919081815260200182805460018160011615610100020316600290048015610d585780601f10610d2d57610100808354040283529160200191610d58565b820191906000526020600020905b815481529060010190602001808311610d3b57829003601f168201915b5050505050908060030160009054906101000a900473ffffffffffffffffffffffffffffffffffffffff16905084565b60008090505b600480549050811015610e5f578360048281548110610da957fe5b9060005260206000209060040201600001541415610e52578260048281548110610dcf57fe5b90600052602060002090600402016002019080519060200190610df3929190611228565b503360048281548110610e0257fe5b906000526020600020906004020160030160006101000a81548173ffffffffffffffffffffffffffffffffffffffff021916908373ffffffffffffffffffffffffffffffffffffffff1602179055505b8080600101915050610d8e565b507f4586e2343c9dddb84d9e3635b0bb884f3a03974967a170d4b6a6c22e05501e56838284336040518085815260200180602001806020018473ffffffffffffffffffffffffffffffffffffffff1673ffffffffffffffffffffffffffffffffffffffff168152602001838103835286818151815260200191508051906020019080838360005b83811015610f01578082015181840152602081019050610ee6565b50505050905090810190601f168015610f2e5780820380516001836020036101000a031916815260200191505b50838103825285818151815260200191508051906020019080838360005b83811015610f67578082015181840152602081019050610f4c565b50505050905090810190601f168015610f945780820380516001836020036101000a031916815260200191505b50965050505050505060405180910390a1505050565b6000815111610fb857600080fd5b600160008154809291906001019190505550604051806060016040528060015481526020018281526020013373ffffffffffffffffffffffffffffffffffffffff168152506003600060015481526020019081526020016000206000820151816000015560208201518160010190805190602001906110389291906111a8565b5060408201518160020160006101000a81548173ffffffffffffffffffffffffffffffffffffffff021916908373ffffffffffffffffffffffffffffffffffffffff1602179055509050507f618e7c0a5a81623326df1e96b95cff24f2c4577dee149d58c750693fc1059a14600154823360405180848152602001806020018373ffffffffffffffffffffffffffffffffffffffff1673ffffffffffffffffffffffffffffffffffffffff168152602001828103825284818151815260200191508051906020019080838360005b83811015611121578082015181840152602081019050611106565b50505050905090810190601f16801561114e5780820380516001836020036101000a031916815260200191505b5094505050505060405180910390a150565b50805460018160011615610100020316600290046000825580601f1061118657506111a5565b601f0160209004906000526020600020908101906111a491906112a8565b5b50565b828054600181600116156101000203166002900490600052602060002090601f016020900481019282601f106111e957805160ff1916838001178555611217565b82800160010185558215611217579182015b828111156112165782518255916020019190600101906111fb565b5b50905061122491906112a8565b5090565b828054600181600116156101000203166002900490600052602060002090601f016020900481019282601f1061126957805160ff1916838001178555611297565b82800160010185558215611297579182015b8281111561129657825182559160200191906001019061127b565b5b5090506112a491906112a8565b5090565b6112ca91905b808211156112c65760008160009055506001016112ae565b5090565b9056fea265627a7a7231582039c569fc5d190aea07c6b92f1fc6798b0944f9ab16c723936739fb947aeba65f64736f6c63430005100032",
  "source": "pragma solidity ^0.5.0;\r\n\r\ncontract Project {\r\n\tstring public name;\r\n\tuint public postCount = 0;\r\n\tuint public docCount = 0;\r\n\r\n\t//writting key value pair into the blockchain\r\n\tmapping(uint => Post) public posts;\r\n\t//mapping(uint => Doc) public Docs;\r\n\t\r\n\tDoc[] public document;\r\n\r\n\tstruct Post {\r\n\t\tuint id;\r\n\t\tstring content;\r\n\t\taddress author;\r\n\t}\t\r\n\r\n\tstruct Doc {\r\n\t\tuint id;\r\n\t\tstring title;\r\n\t\tstring content;\r\n\t\taddress author;\r\n\t}\r\n\t\r\n\tevent PostCreated(\r\n\t\tuint id,\r\n\t\tstring content,\r\n\t\taddress author\r\n\t);\r\n\r\n\tevent DocCreated(\r\n\t\tuint doc_id,\r\n\t\tstring title,\r\n\t\tstring content,\r\n\t\taddress author\r\n\t);\r\n\r\n\tevent DocUploaded(\r\n\t\tuint doc_id,\r\n\t\tstring title,\r\n\t\tstring content,\r\n\t\taddress author\r\n\t);\r\n\r\n\tevent DocDeleted(\r\n\t\tuint doc_id\r\n\r\n\t);\r\n\r\n\r\n\tconstructor() public  {\r\n\t\tname=\"project\";\r\n\t}\r\n\r\n\tfunction uploadDoc(string memory _IPFShash, string memory _title) public {\r\n\t\t//upload documents to IPFS get hash then save hash on to blockchain\r\n\t\t\r\n\t\t//make a doc\r\n\t\t//Docs[docCount] = Doc(docCount, _title, _IPFShash, msg.sender);\r\n\t\tdocument.push(Doc(docCount, _title, _IPFShash, msg.sender));\r\n\t\tdocCount++;\r\n\t\t//Trigger Event, solidty provides a way for users to track events and test\r\n\t\temit DocCreated(docCount, _title, _IPFShash, msg.sender);\r\n\t}\r\n\r\n\tfunction createPost(string memory _content) public {\r\n\t\t//require valid content solidity specific function, if 1 then run rest of code, \r\n\r\n\t\t//else stops and refund gas\r\n\r\n\t\trequire(bytes(_content).length > 0 );\r\n\r\n\t\tpostCount++;\r\n\t\t//make a post\r\n\t\tposts[postCount] = Post(postCount, _content, msg.sender);\r\n\t\t\r\n\t\t//Trigger Event, solidty provides a way for users to track events \r\n\t\temit PostCreated(postCount, _content, msg.sender);\r\n\t}\r\n\r\n\tfunction updateDoc(uint _id, string memory _IPFShash, string memory _title) public {\r\n\r\n\t\tfor (uint i=0; i<document.length; i++) {\r\n\t\t\tif (document[i].id == _id){\r\n\t\t\t\tdocument[i].content =  _IPFShash;\r\n\t\t\t\tdocument[i].author =  msg.sender;\r\n\t\t\t}\r\n\t\t}\r\n\t\t//Trigger Event, solidty provides a way for users to track events \r\n\t\temit DocUploaded(_id,  _title, _IPFShash, msg.sender);\r\n\t\r\n\t}\r\n\r\n\tfunction deleteDoc(uint _id) public {\r\n\r\n\t\tfor (uint i=0; i<document.length; i++) {\r\n\t\t\tif (document[i].id == _id){\r\n\t\t\t\tdelete document[i];\r\n\t\t\t\tdocCount--;\r\n\t\t\t}\r\n\t\t}\t\r\n\t\temit DocDeleted(_id);\r\n\t}\r\n  \r\n}",
  "sourcePath": "C:/Users/User/Documents/Project/project/project/FinalYearProject/src/contracts/Project.sol",
  "compiler": {
    "name": "solc",
    "version": "0.5.16+commit.9c3226ce.Emscripten.clang"
  },
  "schemaVersion": "3.0.22",
  "updatedAt": "2020-04-09T15:48:18.955Z",
  "networkType": "ethereum",
  "devdoc": {
    "methods": {}
  },
  "userdoc": {
    "methods": {}
  }
}