{
  "contractName": "Project",
  "abi": [
    {
      "constant": true,
      "inputs": [],
      "name": "name",
      "outputs": [
        {
          "name": "",
          "type": "string"
        }
      ],
      "payable": false,
      "stateMutability": "view",
      "type": "function",
      "signature": "0x06fdde03"
    },
    {
      "constant": true,
      "inputs": [
        {
          "name": "",
          "type": "uint256"
        }
      ],
      "name": "posts",
      "outputs": [
        {
          "name": "id",
          "type": "uint256"
        },
        {
          "name": "content",
          "type": "string"
        },
        {
          "name": "author",
          "type": "address"
        }
      ],
      "payable": false,
      "stateMutability": "view",
      "type": "function",
      "signature": "0x0b1e7f83"
    },
    {
      "constant": true,
      "inputs": [],
      "name": "postCount",
      "outputs": [
        {
          "name": "",
          "type": "uint256"
        }
      ],
      "payable": false,
      "stateMutability": "view",
      "type": "function",
      "signature": "0x17906c2e"
    },
    {
      "inputs": [],
      "payable": false,
      "stateMutability": "nonpayable",
      "type": "constructor",
      "signature": "constructor"
    },
    {
      "anonymous": false,
      "inputs": [
        {
          "indexed": false,
          "name": "id",
          "type": "uint256"
        },
        {
          "indexed": false,
          "name": "content",
          "type": "string"
        },
        {
          "indexed": false,
          "name": "author",
          "type": "address"
        }
      ],
      "name": "PostCreated",
      "type": "event",
      "signature": "0x618e7c0a5a81623326df1e96b95cff24f2c4577dee149d58c750693fc1059a14"
    },
    {
      "constant": false,
      "inputs": [
        {
          "name": "_content",
          "type": "string"
        }
      ],
      "name": "createPost",
      "outputs": [],
      "payable": false,
      "stateMutability": "nonpayable",
      "type": "function",
      "signature": "0xc7303c61"
    }
  ],
  "bytecode": "0x6080604052600060015534801561001557600080fd5b506040805190810160405280600781526020017f70726f6a6563740000000000000000000000000000000000000000000000000081525060009080519060200190610061929190610067565b5061010c565b828054600181600116156101000203166002900490600052602060002090601f016020900481019282601f106100a857805160ff19168380011785556100d6565b828001600101855582156100d6579182015b828111156100d55782518255916020019190600101906100ba565b5b5090506100e391906100e7565b5090565b61010991905b808211156101055760008160009055506001016100ed565b5090565b90565b6106e88061011b6000396000f3fe608060405260043610610062576000357c0100000000000000000000000000000000000000000000000000000000900463ffffffff16806306fdde03146100675780630b1e7f83146100f757806317906c2e146101e5578063c7303c6114610210575b600080fd5b34801561007357600080fd5b5061007c6102d8565b6040518080602001828103825283818151815260200191508051906020019080838360005b838110156100bc5780820151818401526020810190506100a1565b50505050905090810190601f1680156100e95780820380516001836020036101000a031916815260200191505b509250505060405180910390f35b34801561010357600080fd5b506101306004803603602081101561011a57600080fd5b8101908080359060200190929190505050610376565b60405180848152602001806020018373ffffffffffffffffffffffffffffffffffffffff1673ffffffffffffffffffffffffffffffffffffffff168152602001828103825284818151815260200191508051906020019080838360005b838110156101a857808201518184015260208101905061018d565b50505050905090810190601f1680156101d55780820380516001836020036101000a031916815260200191505b5094505050505060405180910390f35b3480156101f157600080fd5b506101fa610458565b6040518082815260200191505060405180910390f35b34801561021c57600080fd5b506102d66004803603602081101561023357600080fd5b810190808035906020019064010000000081111561025057600080fd5b82018360208201111561026257600080fd5b8035906020019184600183028401116401000000008311171561028457600080fd5b91908080601f016020809104026020016040519081016040528093929190818152602001838380828437600081840152601f19601f82011690508083019250505050505050919291929050505061045e565b005b60008054600181600116156101000203166002900480601f01602080910402602001604051908101604052809291908181526020018280546001816001161561010002031660029004801561036e5780601f106103435761010080835404028352916020019161036e565b820191906000526020600020905b81548152906001019060200180831161035157829003601f168201915b505050505081565b6002602052806000526040600020600091509050806000015490806001018054600181600116156101000203166002900480601f0160208091040260200160405190810160405280929190818152602001828054600181600116156101000203166002900480156104285780601f106103fd57610100808354040283529160200191610428565b820191906000526020600020905b81548152906001019060200180831161040b57829003601f168201915b5050505050908060020160009054906101000a900473ffffffffffffffffffffffffffffffffffffffff16905083565b60015481565b6000815111151561046e57600080fd5b60016000815480929190600101919050555060606040519081016040528060015481526020018281526020013373ffffffffffffffffffffffffffffffffffffffff168152506002600060015481526020019081526020016000206000820151816000015560208201518160010190805190602001906104ef929190610617565b5060408201518160020160006101000a81548173ffffffffffffffffffffffffffffffffffffffff021916908373ffffffffffffffffffffffffffffffffffffffff1602179055509050507f618e7c0a5a81623326df1e96b95cff24f2c4577dee149d58c750693fc1059a14600154823360405180848152602001806020018373ffffffffffffffffffffffffffffffffffffffff1673ffffffffffffffffffffffffffffffffffffffff168152602001828103825284818151815260200191508051906020019080838360005b838110156105d85780820151818401526020810190506105bd565b50505050905090810190601f1680156106055780820380516001836020036101000a031916815260200191505b5094505050505060405180910390a150565b828054600181600116156101000203166002900490600052602060002090601f016020900481019282601f1061065857805160ff1916838001178555610686565b82800160010185558215610686579182015b8281111561068557825182559160200191906001019061066a565b5b5090506106939190610697565b5090565b6106b991905b808211156106b557600081600090555060010161069d565b5090565b9056fea165627a7a72305820024ad4518fb74689a57a60903e1ec0983131b93060eaeb90d72d8bdcac9d9c700029",
  "source": "pragma solidity ^0.5.0;\r\n\r\ncontract Project {\r\n\tstring public name;\r\n\tuint public postCount = 0;\r\n\t\r\n\t//writting key value pair into the blockchain\r\n\tmapping(uint => Post) public posts;\r\n\r\n\r\n\tstruct Post {\r\n\t\tuint id;\r\n\t\tstring content;\r\n\t\taddress author;\r\n\t}\r\n\t\r\n\tevent PostCreated(\r\n\tuint id,\r\n\tstring content,\r\n\taddress author\r\n\t);\r\n\r\n\r\n\tconstructor() public  {\r\n\t\tname=\"project\";\r\n\t}\r\n\r\n\tfunction createPost(string memory _content) public {\r\n\t\t//require valid content solidity specific function, if 1 then run rest of code, \r\n\t\t//else stops and refund gas\r\n\r\n\t\t\r\n\t\trequire(bytes(_content).length > 0 );\r\n\r\n\t\tpostCount++;\r\n\t\t//make a post\r\n\t\tposts[postCount] = Post(postCount, _content, msg.sender);\r\n\t\t\r\n\t\t//Trigger Event, solidty provides a way for users to track events \r\n\t\temit PostCreated(postCount, _content, msg.sender);\r\n\r\n\t}\r\n}",
  "sourcePath": "C:/Users/User/Documents/Project/project/project/src/contracts/Project.sol",
  "compiler": {
    "name": "solc",
    "version": "0.5.0+commit.1d4f565a.Emscripten.clang"
  },
  "schemaVersion": "3.0.1",
  "updatedAt": "2020-02-11T17:48:30.076Z",
  "devdoc": {
    "methods": {}
  },
  "userdoc": {
    "methods": {}
  }
}